:020000040800F2
:10000000D8060020890100082D1800080D0F0008EF
:1000100029180008A902000825190008000000009E
:100020000000000000000000000000001919000896
:10003000AD02000800000000311800081D1900087A
:10004000A3010008A3010008A3010008A301000800
:10005000A3010008A3010008A3010008A3010008F0
:10006000A3010008A3010008A3010008A3010008E0
:10007000A3010008A3010008A3010008A3010008D0
:10008000A3010008A3010008A3010008A3010008C0
:10009000A3010008A3010008A3010008A3010008B0
:1000A000A3010008A3010008A3010008A3010008A0
:1000B000A3010008A3010008A3010008A301000890
:1000C000A3010008A3010008A3010008A301000880
:1000D000A3010008A3010008A3010008A301000870
:1000E000A3010008A3010008A301000800F002F822
:1000F00000F03AF80AA090E8000C82448344AAF188
:100100000107DA4501D100F02FF8AFF2090EBAE885
:100110000F0013F0010F18BFFB1A43F0010318473B
:10012000C8320000E8320000103A24BF78C878C115
:10013000FAD8520724BF30C830C144BF04680C60ED
:10014000704700000023002400250026103A28BF35
:1001500078C1FBD8520728BF30C148BF0B60704739
:100160001FB51FBD10B510BD00F063F81146FFF7B5
:10017000F7FF01F05DFD00F081F803B4FFF7F2FF37
:1001800003BC00F089F8000009488047094800478F
:10019000FEE7FEE7FEE7FEE7FEE7FEE7FEE7FEE737
:1001A000FEE7FEE704480549054A064B7047000094
:1001B00021190008ED000008D8000020D806002012
:1001C000D8020020D802002010B5203AC0F00B80E1
:1001D000B1E81850A0E81850B1E81850A0E818503D
:1001E000203ABFF4F5AF5FEA027C24BFB1E81850B3
:1001F000A0E8185044BF18C918C0BDE810405FEA15
:10020000827C24BF51F8043B40F8043B08BF704790
:10021000D20728BF31F8023B48BF11F8012B28BF95
:1002200020F8023B48BF00F8012B70477047704729
:100230007047754600F02CF8AE46050069465346F7
:1002400020F00700854618B020B5FFF7ABFFBDE8EA
:1002500020404FF000064FF000074FF000084FF02D
:10026000000BAC46ACE8C009ACE8C009ACE8C0097A
:10027000ACE8C00921F007018D46704710B504466F
:10028000AFF300802046BDE81040FFF776BF0000C6
:10029000004870471800002001491820ABBEFEE757
:1002A0002600020070470000FEE7000070470000D3
:1002B000B0B5044600F02AF9054640F20000C2F24B
:1002C00000000078611C18BF044400BF00F01EF954
:1002D000401BA042FAD3B0BD2DE9F04F82B00E68AA
:1002E000002E00F0038141F20042C4F20102042317
:1002F00040F2004E904208BF03234FF6FF7CC4F249
:10030000010E009300240123C1F2100C4FF0000AEB
:100310004FF0000949E000BF012704F00C030F2251
:100320009A402BEA020207FA03F34FEA9A051A43AE
:1003300046F82520D1F804B040F20C455FEACB2204
:10034000DEF8082054BF22EA080242EA0802C4F29A
:100350000105CEF808202A685FEA8B2354BF22EA01
:10036000080242EA08022A605FEA8B33DEF80420C2
:1003700054BF22EA080242EA08025FEACB33CEF811
:100380000420DEF800204FF0010354BF22EA0802E7
:1003900042EA0802CEF800200E680AF1010A36FA95
:1003A0000AF204F1040400F0A18003FA0AF816EA44
:1003B000080FF1D04E68664512DC122E56D8DFE8E1
:1003C00006F0350B45495555555555555555555517
:1003D0005555554D510000BFD1F80C9046E000BF77
:1003E0004FF6FF72C1F2210296420FDC0022C1F2E9
:1003F000110296421AD00022C1F21202964215D082
:100400000022C1F22102964210D02FE00022C1F258
:10041000220296420AD00022C1F23102964205D051
:100420000022C1F23202964220D100BF8A684AB14E
:10043000012A14BFC0F81480C0F810804FF00809DA
:1004400014E000BF4FF0040910E000BFCA6802F1D9
:1004500008090BE04FF0000908E000BFCA6802F18C
:10046000040903E0CA6802F10C0900BF22460646EF
:10047000BAF1080F24BF203A043637680F2595409B
:1004800027EA050509FA02F22A433260CA79D20640
:100490007FF582AF41F21803C4F202031A68AEF589
:1004A0007E7642F001021A601A6802F0010201929F
:1004B000019A2AF0030256F802B040F60002C4F294
:1004C0000102904210D040F60042C4F20102904274
:1004D0003FF422AF41F20002C4F20102009F9042B9
:1004E00008BF022719E700BF002716E702B0BDE8E2
:1004F000F08F00008068084018BF0120704700009E
:10050000002A08BF090401617047000040F2D000D2
:10051000C2F200000068704740F2000040F2D001D3
:10052000C2F20000C2F2000100780A6810440860BC
:100530007047000080B542F20000C4F2020001687A
:1005400041F010010160032000F07AF80F2000F064
:1005500005F800F027F8002080BD000070B540F2DB
:100560000006C2F2000640F210013278C2F2000129
:100570004FF47A730968B3FBF2F20446B1FBF2F16F
:10058000084600F0ADFC0F2C4FF0010508D838B933
:100590004FF0FF3021460022002500F025F874605E
:1005A000284670BD82B041F21800C4F20200016812
:1005B000022241F001010160016801F00101019195
:1005C0000199416841F080514160406800F08050DD
:1005D000009000980420C4F20100016862F31A61DF
:1005E000016002B07047000010B54EF60C5CCEF210
:1005F000000CDCF80030C3F3022E8EF00704042C4C
:1006000028BF0424BEF103034FF0FF3E0EFA04F4AA
:1006100038BF0023A14399400EFA03F39A431143D4
:1006200000F00F0200F160430901043A03F564434E
:100630006244002848BF02F10C03197010BD00008D
:100640004EF60C51CEF200010A684FF6FF031A4035
:1006500060F30A2242F0806040F0FD70086070474D
:100660002DE9F04381B0002800F0858042F20008B7
:10067000C4F202080446D8F800000D4600F0070056
:1006800088420CD2D8F8000020F007002843C8F8B0
:100690000000D8F8000000F00700A8426BD12068E5
:1006A00041F204098107C4F2020917D5410705D5B3
:1006B000D9F8001041F4E061C9F80010010705D530
:1006C000D9F8001041F46051C9F80010D9F80010B1
:1006D000A26821F0F0011143C9F80010C00741D110
:1006E000D8F8000000F00700A8420CD9D8F80000A4
:1006F00020F007002843C8F80000D8F8000000F0F8
:100700000700A84237D12068410707D5D9F8001063
:10071000E26821F4E0611143C9F80010000708D530
:10072000D9F80000216920F4605040EAC100C9F8FE
:100730000000D9F8002002F00C00082841F2002047
:10074000C0F27A0050D143F2CA33C2F38341C0F6FB
:100750000003595CD2033BD440F60010C0F23D00C8
:10076000484341E0606802280AD001282AD159F89C
:10077000041C890308D4012001B0BDE8F08300BF48
:1007800059F8041C8901F6D5D9F8001021F00301AD
:100790000843C9F80000FFF7B9FE064641F2883762
:1007A000D9F80000616800F00C00B0EB810F97D021
:1007B000FFF7ACFE801BB842F2D9032001B0BDE8C0
:1007C000F08300BF59F8041C8907D4D5DCE700BFCB
:1007D000D9F8002043F2C833C2F34042C0F6000308
:1007E0009A5C4843B0FBF2F0D9F8001042F26C0278
:1007F000C1F30311C0F60002515C40F2100220FA6E
:1008000001F140F20400C2F200000068C2F20002EE
:100810001160FFF7A3FE002001B0BDE8F0830000E7
:100820002DE9F04182B0002868D00446007841F2FA
:100830000006C007C4F2020625D0706800F00C0064
:1008400004281BD0706800F00C00082802D17068E2
:10085000C00313D46068002800F06881B0F5A02FB1
:1008600000F07C81B0F5803F00F07C81306820F49E
:1008700080303060306820F4802076E1306880037A
:1008800001D56068D0B32078800718D5706810F063
:100890000C0F07D0706800F00C0008286ED170684B
:1008A000C0036BD43068800702D52069012825D1A8
:1008B0003068616920F0F80040EAC10030602078BB
:1008C00000071FD42078400732D4E56995B17068DD
:1008D00000F00C00082840F08F80012D0ED07068C9
:1008E000216A00F480328A4208D1616A00F47010F3
:1008F000884203D1002002B0BDE8F081012002B09F
:10090000BDE8F081A069002862D00020C4F2422036
:100910000121C0F88014FFF7F9FD0546706A8007D1
:1009200000F18C80FFF7F2FD401B0228F6D92AE186
:10093000F06910F0805808D1F06940F08050F06103
:10094000F06900F080500090009847F20007C4F270
:1009500000073868C00529D4386840F480703860D2
:10096000FFF7D4FD054600BF3868C0051ED4FFF769
:10097000CDFD401B6428F7D905E100BF20690028A0
:1009800040F20000C4F2422000F0828001210160A8
:10099000FFF7BCFD054600BF306880073FF588AF14
:1009A000FFF7B4FD401B0228F6D9ECE0E068002810
:1009B00000F08080052800F09780012800F09880E2
:1009C000306A20F001003062306A20F0040092E0CA
:1009D0000020C4F242200021C0F88014FFF796FDE9
:1009E000054600BF706A80077FF56CAFFFF78EFD8C
:1009F000401B0228F6D9C6E00027C4F24227002097
:100A00003866FFF783FD022D05460BD13068800163
:100A100040F1BE80FFF77AFD401B02284FF0030033
:100A2000F4D968E7306880017FF564AFFFF76EFDA9
:100A3000401B02284FF00300F4D95CE740F210009D
:100A4000C2F20000006844F6D351C1F26201A0FB7B
:100A50000101480A019000BF00BF0198411E002813
:100A600001913FF42FAF00BF0198411E0028019172
:100A70003FF428AF00BF0198411E002801913FF4C8
:100A800021AF00BF0198411E00280191E4D119E770
:100A900000210160FFF73AFD054600BF306880077E
:100AA0007FF50DAFFFF732FD401B02284FF003002A
:100AB000F4D920E7306A20F001003062306A20F07B
:100AC00004003062FFF722FD054641F2883700BF7F
:100AD000306A800720D5FFF719FD401BB8424FF060
:100AE0000300F5D907E700BF306A40F00400306228
:100AF000306A40F001003062FFF708FD054641F220
:100B0000883700BF306A800706D4FFF7FFFC401B20
:100B1000B842F7D937E000BFB8F1000F7FF4D5AE87
:100B2000F06920F08050F061CFE600BF306820F41B
:100B300080303060306820F480203060FFF7E6FCC1
:100B4000054600BF306880037FF59DAEFFF7DEFCF1
:100B5000401B64284FF00300F4D9CCE6306840F421
:100B600080203060306840F480303060FFF7CEFC89
:100B7000054600BF306880033FF585AEFFF7C6FC31
:100B8000401B6428F6D9032002B0BDE8F08100BF05
:100B9000206AB0F5803F05D17168A26821F4003168
:100BA000114371607168626A21F474111143084342
:100BB000706001203866FFF7A9FC044630688001A8
:100BC0003FF598AEFFF7A2FC001B02284FF0030090
:100BD000F4D990E670B538B10446406A30B10020CF
:100BE000206104F1140007E0012070BD6068B0F5D9
:100BF000827F03D004F11C00002101600026A66260
:100C000094F8510020B9204684F8506000F038F87C
:100C1000022084F8510094E8071001F482710368FF
:100C200002F4044223F040030360236911440CF4EE
:100C30000062114403F002026369114403F00102EF
:100C4000A369E569114403F40072114405F0380208
:100C5000256A114405F08002A56A114305F400528B
:100C600011430160042101EA13414160C16921F48B
:100C70000061C1610120666584F85100304670BD95
:100C800080B586B0014640F60000C4F20100096854
:100C900000F5205300229942049201D006B080BD95
:100CA00041F21801C4F202010A6842F480520A605B
:100CB0000A6802F480520192019A0A6842F0040222
:100CC0000A60096801F0040101910199A0210291D3
:100CD000022103910321059102A9FFF7FDFA06B055
:100CE00080BD00002DE9F04182B0044690F850002C
:100CF000012803D1022002B0BDE8F08101201D4689
:100D000016460F4684F85000FFF700FC94F8511087
:100D100001290DD18046002F4FF0010018BF002E91
:100D20000ED1002184F8501002B0BDE8F08100BF60
:100D30000220002184F8501002B0BDE8F08100BF0D
:100D40000320002184F8510061652763A686E686AA
:100D5000A163A187E187A0682164B0F5004F2068F6
:100D6000616407D1016821F040010160016841F42C
:100D7000804101600168490603D4016841F04001E7
:100D800001606168731EE268B1FA81F1B3FA83F31E
:100D900049095B09B2F5006F41EA03013CD131B169
:100DA00037F8021BC1602763E08E0138E086E08ED1
:100DB00000286BD0681C0CD11DE000BF216B31F8FE
:100DC000022BC2602163E08E0138E086E08E0028AD
:100DD0005CD0206881688907F0D4FFF797FBA0EB0F
:100DE0000800A842F2D3032071E000BFFFF78EFB9A
:100DF000E08E00284AD0206881688907F6D5216BEB
:100E000031F8022BC2602163E08E0138E086E08E6B
:100E10000028F0D13AE000BF39B139780173206B76
:100E200001302063E08E0138E086E08E70B3681CEC
:100E30000BD11BE0216B09780173206B013020631B
:100E4000E08E0138E086E08E00B320688168890773
:100E5000F0D4FFF75BFBA0EB0800A842F3D303201C
:100E600035E000BFFFF752FBE08E78B12068816863
:100E70008907F7D5216B09780173206B0130206356
:100E8000E08E0138E086E08E0028EFD120468021F8
:100E90002A46434600F0CEFC28B1606D40F02000A9
:100EA000606520206065A06838B900200190206846
:100EB000C1680191806801900198606D30B1012096
:100EC000002184F8501002B0BDE8F081002001211B
:100ED00084F85110002184F8501002B0BDE8F08170
:100EE000411E0020B0EB116F1CBF012070474EF275
:100EF0001002CEF2000251604EF62351CEF20001F4
:100F0000F0230B700721906011607047FEE700002E
:100F10002DE9F04782B0EF2852D8074688090E46DF
:100F200004284DD840F60048D0199246C4F2010872
:100F3000F02803EB06001C46DDF8289088BFC7F1B7
:100F4000F00AB0F5A07F40464FF002014FF00002DA
:100F500088BFC6F5A074FFF7D3FA07EB0A00311972
:100F60000138013982B28BB23846314600F0FAFAC4
:100F700099FA99F0ADF80600404604210122FFF7E6
:100F8000BFFA200418BF5FEA0A4014D040F2780686
:100F9000C2F200060DF10607554600BF304639463D
:100FA00002224FF0FF33FFF79DFE013D2804F5D1EB
:100FB000013C2004F0D1404602210122FFF7A0FAB3
:100FC00002B0BDE8F087000080B582B08446002002
:100FD0000021F0224FF4A073CDF800C0FFF798FF76
:100FE00002B080BD2DE9F04385B040F60044C4F264
:100FF000010420460221002202264FF00009FFF7DB
:101000007FFA20464FF480610022FFF779FA05202D
:10101000FFF74EF920464FF4806101224FF001089E
:10102000FFF76EFA2046042100228DF80080FFF7BA
:1010300067FA40F27805C2F20005694628460122A7
:101040004FF0FF33FFF74EFE4FF47A70FFF730F9A1
:10105000CB208DF80000204604210022FFF750FA33
:101060006946284601224FF0FF33FFF73BFE42F668
:101070003940C3F20040009020460421012201962D
:10108000FFF73EFA6946284605224FF0FF33FFF787
:1010900029FECF208DF80000204604210022FFF712
:1010A0002FFA6946284601224FF0FF33FFF71AFE58
:1010B0004CF20010C0F230000090204604210122C2
:1010C000FFF71EFA6946284603224FF0FF33FFF769
:1010D00009FEE8208DF80000204604210022FFF7D9
:1010E0000FFA6946284601224FF0FF33FFF7FAFD59
:1010F0008520C0F278000090204604210122FFF7ED
:10110000FFF96946284603224FF0FF33FFF7EAFD57
:10111000EA208DF80000204604210022FFF7F0F9B4
:101120006946284601224FF0FF33FFF7DBFD2046DA
:1011300004210122ADF80090FFF7E2F96946284644
:1011400002224FF0FF33FFF7CDFDED208DF80000B8
:10115000204604210022FFF7D3F9694628460122E0
:101160004FF0FF33FFF7BEFD40F26430C8F21210BB
:101170000090204604210122FFF7C2F96946284663
:1011800004224FF0FF33FFF7ADFDF7208DF800008C
:10119000204604210022FFF7B3F9694628460122C0
:1011A0004FF0FF33FFF79EFD20208DF80000204612
:1011B00004210122FFF7A4F96946284601224FF0D5
:1011C000FF33FFF78FFDC0208DF80000204604217B
:1011D0000022FFF795F96946284601224FF0FF33B8
:1011E000FFF780FD23208DF8000020460421012216
:1011F000FFF786F96946284601224FF0FF33FFF7D3
:1012000071FDC1208DF80000204604210022FFF767
:1012100077F96946284601224FF0FF33FFF762FD58
:1012200010208DF80000204604210122FFF768F904
:101230006946284601224FF0FF33FFF753FDC520D2
:101240008DF80000204604210022FFF759F9694675
:10125000284601224FF0FF33FFF744FD42F63E00DF
:10126000ADF80000204604210122FFF749F9694644
:10127000284602224FF0FF33FFF734FDC7208DF8D8
:101280000000204604210022FFF73AF9694628466B
:1012900001224FF0FF33FFF725FD86208DF8000077
:1012A000204604210122FFF72BF969462846012236
:1012B0004FF0FF33FFF716FD3626204604210022AB
:1012C0008DF80060FFF71CF96946284601224FF0AF
:1012D000FF33FFF707FD48272046042101228DF840
:1012E0000070FFF70DF96946284601224FF0FF33E1
:1012F000FFF7F8FC3A208DF8000020460421002278
:10130000FFF7FEF86946284601224FF0FF33FFF74A
:10131000E9FC55208DF80000204604210122FFF74A
:10132000EFF86946284601224FF0FF33FFF7DAFC59
:10133000B1208DF80000204604210022FFF7E0F8DC
:101340006946284601224FF0FF33FFF7CBFC4FF4EC
:10135000C050ADF80000204604210122FFF7D0F86C
:101360006946284602224FF0FF33FFF7BBFCB62048
:101370008DF80000204604210022FFF7C1F86946DD
:10138000284601224FF0FF33FFF7ACFC48F208205B
:10139000C0F227000090204604210122FFF7B0F898
:1013A0006946284603224FF0FF33FFF79BFCF220EB
:1013B0008DF80000204604210022FFF7A1F86946BD
:1013C000284601224FF0FF33FFF78CFC2046042112
:1013D00001228DF80090FFF793F869462846012214
:1013E0004FF0FF33FFF77EFC26208DF800002046EB
:1013F00004210022FFF784F86946284601224FF0B5
:10140000FF33FFF76FFC2046042101228DF8008096
:10141000FFF776F86946284601224FF0FF33FFF7C1
:1014200061FCE0208DF80000204604210022FFF737
:1014300067F86946284601224FF0FF33FFF752FC58
:1014400040F60E10039040F23770C0F21030029058
:1014500040F60E00CFF24E10019043F20F10C0F68E
:101460002B400090204604210122FFF749F86946ED
:1014700028460F224FF0FF33FFF734FCE1208DF8B0
:101480000000204604210022FFF73AF8694628466A
:1014900001224FF0FF33FFF725FC43F23160C0F229
:1014A0000F00039040F64800C0F60F40029040F253
:1014B0001170CCF23110019040F60060C0F214308F
:1014C0000090204604210122FFF71AF869462846B9
:1014D0000F224FF0FF33FFF705FC11208DF80000BD
:1014E000204604210022FFF70BF869462846012216
:1014F0004FF0FF33FFF7F6FB7820FEF7D9FE2920E7
:101500008DF80000204604210022FEF7F9FF69460D
:10151000284601224FF0FF33FFF7E4FB2046042169
:1015200000228DF80060FEF7EBFF69462846012295
:101530004FF0FF33FFF7D6FB2046042101228DF840
:101540000070FEF7DDFF6946284601224FF0FF33A9
:10155000FFF7C8FB204602210122FEF7D1FF05B0AC
:10156000BDE8F0832DE9F04383B040F6004805461E
:101570002A20C4F2010814460F468DF8090040469F
:10158000042100221E46FEF7BBFF40F27809C2F29A
:1015900000090DF10901484601224FF0FF33FFF722
:1015A000A1FB280A8DF80500200A8DF807004046A7
:1015B000042101228DF806508DF80840FEF7A0FFA7
:1015C0000DF10501484604224FF0FF33FFF78AFB77
:1015D0002B208DF80A00404604210022FEF790FFE0
:1015E0000DF10A01484601224FF0FF33FFF77AFB65
:1015F000380A8DF80100300A8DF8030040460421B6
:1016000001228DF802708DF80460FEF779FF0DF16C
:101610000101484604224FF0FF33FFF763FB2C2003
:101620008DF80B00404604210022FEF769FF0DF102
:101630000B01484601224FF0FF33FFF753FB03B085
:10164000BDE8F08340F60040C4F20100022101220F
:10165000FEF756BF2DE9F04F87B0044640F6004034
:1016600017460E46C4F20100022100221D46FEF775
:1016700047FFA4463C78002C00F0CA80C5F3072041
:101680003A465FFA85F80028A0F1010905907BD061
:10169000B8F1000F00F09A80DDE9111040F27807F0
:1016A0004FEA112B4FEA102AC2F200070DF11A057A
:1016B000CDF8009009E000BFDDE902C6DDE9009247
:1016C00012F8014F002C00F0A3801FFA8CF0404468
:1016D000F0280BD305990E44B0B2084480090428C1
:1016E00000F29680202C4FF0000CE9D00CEB0801A2
:1016F00001920291013909EB060293B28AB21FFAF4
:101700008CF0B1B20396FFF72DFF0599A4F12000EC
:1017100048430026049003E0059801368642CBD06A
:1017200004981099304431F810404FF0000917E048
:10173000129804218DF8190040F60040C4F201000F
:1017400001228DF818A0FEF7DBFE384606A902221A
:101750004FF0FF33FFF7C6FA09F10109C845DBD0A6
:1017600004FA09F00004E3D5119804218DF81B0058
:1017700040F60040C4F2010001228DF81AB0FEF7D5
:10178000BFFE38462946E2E7551C0FE00CEB080483
:10179000601E09EB06018BB282B21FFA8CF0B1B267
:1017A000FFF7E0FEA44615F8014B8CB31FFA8CF04E
:1017B0004044F028EAD305980644B0B280090428D2
:1017C00026D8202C4FF0000CE0D1ECE7551C0FE0A0
:1017D0000CEB0804601E09EB06018BB282B21FFA03
:1017E0008CF0B1B2FFF7BEFEA44615F8014B7CB1F8
:1017F0001FFA8CF0F028EBD305990E44B0B20844E0
:101800008009042804D8202C4FF0000CE0D1ECE72C
:1018100040F60040C4F2010002210122FEF770FEF2
:1018200007B0BDE8F08F0000FEE70000FEE7000013
:10183000704700002DE9F04182B01E4690460D46EB
:101840000446FEF763FE301A00EB0807FEF75EFE63
:1018500040F21001C2F200010968C1F3CB317943B3
:10186000019121688A682A40AA4227D1064618F1C8
:1018700001001FD0FEF74AFE801BB84222D2019819
:1018800001990028A1F1010101912168896808BF2F
:10189000074601EA0500A842ECD00FE0886828401E
:1018A000A8420BD188682840A84207D18868284000
:1018B000A84203D188682840A842EFD0002002B097
:1018C000BDE8F081D4E900014268B1F5827F22F0E1
:1018D000E00242600AD1A168B1F5004F02D0B1F533
:1018E000806F03D1016821F040010160A16AB1F568
:1018F000005F07D1016821F400510160016841F4E3
:1019000000510160012084F85100002084F850004B
:10191000032002B0BDE8F08170470000FEF7FCBD77
:1019200070470000FEE700002DE9F04F85B040F25F
:1019300008098046C2F20009002600270AE000BF1D
:10194000039FDDF8108001371E36082F08F10408C8
:1019500000F04C8106F1070A2825CDE9037800BF85
:101960000024B0B2A9B21E221E2317F0010B08BF3B
:101970004FF6FF740094FFF7CBFAD8F80000013857
:101980000B2800F2CA80DFE800F007131F2B374353
:101990004F63778B9FB100BFD9E90030BBF1000FD7
:1019A00005F1020140F0C28000904FF4784045E01C
:1019B000D9E90030BBF1000F05F1020140F0BA8017
:1019C00000904FF478404DE0D9E90030BBF1000FB2
:1019D00005F1020140F0B28000904FF4784055E0EC
:1019E000D9E90030BBF1000F05F1020140F0AA80F7
:1019F00000904FF478405DE0D9E90030BBF1000F72
:101A000005F1020140F0A28000904FF4784064E0BC
:101A1000D9E90030BBF1000F05F1020140F09A80D6
:101A200000904FF478406AE0D9E90030BBF1000F34
:101A300005F1020140F0928000901F2043F2E03255
:101A400001901FFA8AF089B2C0F6000260E000BF80
:101A5000D9E90030BBF1000F05F1020140F08A80A6
:101A600000901F2043F2DE3201901FFA8AF089B203
:101A7000C0F600024CE000BFD9E90030BBF1000F16
:101A800005F1020140F0828000901F2043F2DA321B
:101A900001901FFA8AF089B2C0F6000238E000BF58
:101AA000D9E90030BBF1000F05F1020140F07A8066
:101AB00000901F2043F2E43201901FFA8AF089B2AD
:101AC000C0F6000224E000BFD9E90030BBF1000FEE
:101AD00005F1020172D100901F2043F2E232019021
:101AE0001FFA8AF089B2C0F6000211E0D9E900308D
:101AF000BBF1000F05F102016CD100901F2043F2F1
:101B0000DC3201901FFA8AF089B2C0F6000200BFF1
:101B10004FF6FF740294FFF79DFD1E350137B5F5B2
:101B20008C7F08F120087FF41BAF09E700904FF489
:101B3000784015E000904FF478401DE000904FF49D
:101B4000784025E000904FF478402DE000904FF46D
:101B5000784035E000904FF478403DE000901F2041
:101B600043F2E03201901FFA8AF089B2C0F6000217
:101B70000024CFE700901F2043F2DE3201901FFACD
:101B80008AF089B2C0F600020024C3E700901F204B
:101B900043F2DA3201901FFA8AF089B2C0F60002ED
:101BA0000024B7E700901F2043F2E43201901FFAAF
:101BB0008AF089B2C0F600020024ABE700901F2033
:101BC00043F2E23201901FFA8AF089B2C0F60002B5
:101BD00000249FE700901F2043F2DC3201901FFA9F
:101BE0008AF089B2C0F60002002493E700240020A6
:101BF0002821F02201230094FFF78AF9002040F207
:101C00001711F02201230094FFF782F90020282108
:101C10000122F0230094FFF77BF9EF202821012215
:101C2000F0230094FFF774F905B0BDE8F08F0000D1
:101C3000C6B0FEF77FFC00240120CDE90644CDE9C3
:101C40000444019005904FF4E0104FF480310225D8
:101C50000A9001A8CDE90214CDE90851FEF7E0FD94
:101C600020B1EFF3108072B6FEE700BF0F20CDE980
:101C700041054FF48060CDE9440441A8022143941A
:101C8000FEF7EEFC20B1EFF3108072B6FEE700BF66
:101C90004FF0000A41F21800CDF810A0C4F2020083
:101CA000016840F6004941F0100101600168C4F28A
:101CB000010901F01001419141990168002241F0B0
:101CC0002001016001684FF6074601F020014191B3
:101CD0004199016841F004010160016801F00401CB
:101CE00041914199016841F00801016000684FF697
:101CF000074100F00800419041984846FEF700FC7B
:101D0000A9F5806840464FF4E06100224FF4E06B93
:101D1000FEF7F6FB4FF4604001ADCDE9010A09F58D
:101D200080602946CDF80CA0FEF7D6FA1F20CDE939
:101D3000010A0224404629460394FEF7CDFA012702
:101D4000484629460196CDE9027A0494FEF7C4FA82
:101D500040462946CDE901B7CDE903A4FEF7BCFA18
:101D600040F2780009F51051C2F200004FF482727F
:101D70004FF400734FF0100C80E806040A21C0E90C
:101D800003AAC0E905A3C0F81CC0C0E908AAC0E9BD
:101D90000AA1FEF71FFF28B1EFF3108072B600BF53
:101DA000FEE700BFFFF74EFCFFF71CF941F66C7130
:101DB000C0F6000128464FF48072FEF705FA0720AE
:101DC00004210322AB464FF0000E09E0089100BF4A
:101DD0000EF1010EBEF1080F0BF1200B00F0AC80EC
:101DE0004FF0000C09E000BF05EB0C03C3F8C00086
:101DF0000CF1040CBCF1200FEAD0BEF1060FF3D0B9
:101E0000BEF1010F06D105EB0C08C8F820704FF6A3
:101E10000746EDE75EEA0C0302D10191E8E700BF57
:101E2000BEF1000F08BFBCF11C0FCFD0BEF1000FF8
:101E300008BFBCF1040F51D0BEF1000F08BFBCF1C8
:101E4000180F4DD0BEF1000F08BFBCF1080F49D0EC
:101E5000BEF1000F08BFBCF1140F45D0BEF1000F5A
:101E600008BFBCF10C0F41D0BEF1000F08BFBCF1A0
:101E7000100F3FD0BEF1070F08BFBCF1000F3DD0DF
:101E8000BEF1070F08BFBCF11C0F53D0BEF1070F06
:101E900008BFBCF1040F35D0BEF1070F08BFBCF17D
:101EA000180F33D0BEF1070F08BFBCF1080F31D0B7
:101EB000BEF1070F08BFBCF1140F2FD0BEF1070F02
:101EC00008BFBCF10C0F2DD0BEF1070F08BFBCF14D
:101ED000100F2BD04BF80CA08AE700BF029487E7C5
:101EE000079485E7039283E7069281E7052304932D
:101EF0007EE700BF062305937AE700BF0A233993E4
:101F000076E700BF08233A9372E700BF08233F93A8
:101F10006EE700BF09233B936AE700BF09233E93A6
:101F200066E700BF0B233C9362E700BF0C233D93A1
:101F30005EE700BF0A20409006F57E7080B2FFF792
:101F400043F801AD2846FFF7EFFC2846FFF7ECFC0D
:101F500048464FF400610122FEF7D2FA48464FF49A
:101F60000061FEF7C7FA00BFFEE7000004000000B2
:101F70000200000003000000050000000600000051
:101F80000300000002000000040000000100000047
:101F9000010000000100000001000000010000003D
:101FA000010000000100000001000000000000002E
:101FB0000000000000000000000000000000000021
:101FC0000000000000000000000000000000000011
:101FD0000000000000000000000000000000000001
:101FE00000000000000000000000000000000000F1
:101FF00000000000000000000000000000000000E1
:1020000000000000000000000000000000000000D0
:1020100000000000000000000000000000000000C0
:1020200000000000000000000000000007000000A9
:102030000700000007000000070000000700000084
:102040000700000007000000070000000A00000071
:1020500008000000090000000B0000000C00000058
:1020600009000000080000000A0000000000000055
:102070000000000001020304060708090000000038
:102080000000000000000000000000000000000050
:102090000000000000000000000000000000000040
:1020A0000000000000000000000000000000000030
:1020B000E003E003E003E003E003E003E003E00308
:1020C000C003C003C001C001C001C001C0010000C5
:1020D00000000000E003E003E00300000000000057
:1020E000000000003C1E3C1E3C1E3C1E3C1E3C1ED4
:1020F0003C1E000000000000000000000000000086
:1021000000000000000000000000000000000000CF
:102110000000000000000000CE01CE03DE039E039D
:102120009C039C07FF3FFF7F3807380F780F780F1D
:10213000780EFFFFFFFFF01EF01CE01CE03CE03DCE
:10214000E03900000000000000000000FC03FE0F6A
:10215000EE1FE01EE01EE01EE01EE01FE00FE007A5
:10216000F003FC01FE01FE01FE01FE01FE01FE0185
:10217000FE3DFC3FF00FE001E00100000000000028
:10218000033E07F78FE78EE79EE3BCE3B8E7F8E787
:10219000F0F7E03FC001FF03FF07F307F30FF31E63
:1021A000F33CF338F3787FF03FE0000000000000DC
:1021B00000000000E007F80F780F781F781F781FE5
:1021C000780FF00FE00F801FC37FC3FBE7F3F7F139
:1021D000F7F0FFF07FF03EF87F7CFF3FEF1F00003D
:1021E0000000000000000000E003E003E003E00363
:1021F000E003C003C0010000000000000000000078
:1022000000000000000000000000000000000000CE
:102210000000000000000000000000003F007C0003
:10222000F001E001C003C00780078007800F000FA6
:10223000000F000F000F000F000F800F80078007B6
:10224000C007C003E001F0017C003F000F00000068
:10225000007E001FC007C003E001F001F000F000A5
:10226000F800780078007800780078007800F800AE
:10227000F000F000F001E001C003C007001F007E85
:1022800000780000E003C003C001CE39FF3F7F3F6C
:1022900020037003F807780F3C1F38060000000089
:1022A000000000000000000000000000000000002E
:1022B000000000000000000000000000000000001E
:1022C00000000000C001C001C001C001C001C00188
:1022D000C001FFFFFFFFC001C001C001C001C0017C
:1022E000C00100000000000000000000000000002D
:1022F00000000000000000000000000000000000DE
:102300000000000000000000000000000000E003EA
:10231000E003E003E003E001E001E001C00180032D
:1023200000000000000000000000000000000000AD
:10233000000000000000FE3FFE3F00000000000023
:10234000000000000000000000000000000000008D
:10235000000000000000000000000000000000007D
:10236000000000000000000000000000000000006D
:10237000000000000000E003E003E003E0030000D1
:1023800000000000000000000F000F001E001E00F3
:102390003C003C0078007800F000F000E001E00133
:1023A000C003C00380078007000F000F001E001E3F
:1023B000003C003C0078007800F00000F007F80FC7
:1023C0007C1F3E3E1E3C1F7C1F7C0F780F780F78D1
:1023D0000F780F780F780F781F7C1F7C1E3C3E3ED5
:1023E0007C1FF80FF0070000000000000000000054
:1023F000F000F007F03FF03FF001F001F001F001D4
:10240000F001F001F001F001F001F001F001F00144
:10241000F001F001F001FF3FFF3F0000000000006D
:1024200000000000E00FF83F7C3C3C003E003E0016
:102430003E003C003C007C00F800F001E003C007D7
:102440008007000F001E003E003CFE3FFE3F0000E4
:102450000000000000000000F00FF81F7C1C3E0090
:102460003E003E003C003C00F800F00FF80F7C00FE
:102470003E001E001E001E001E003E007C1CF81FB9
:10248000E01F000000000000000000007800F800DD
:10249000F800F801F803F807F807780F781E781E9F
:1024A000783C78787878FFFFFFFF78007800780034
:1024B00078007800780000000000000000000000B4
:1024C000FC1FFC1FFC1F001E001E001E001E001E25
:1024D000E01FF81FFC007C003E003E001E003E0096
:1024E0003E003C007C1CF81FE01F000000000000C4
:1024F00000000000FC01FE078E0F001F001E003EC2
:10250000003C003CF83DFC3F3E7F1F7E0F3C0F3CF3
:102510000F3C0F3C0F3E1F1E3E1FFC0FF003000040
:102520000000000000000000FF3FFF3FFF3F0F00E2
:102530001E001E003C0038007800F000F000E001B2
:10254000E001C003C0038007800F800F000F001F51
:10255000001F00000000000000000000F807FC0F52
:102560003E1F1E1E1E3E1E3E1E1E3C1FF80FF00785
:10257000F80FFC1E3E3E1F3C1F7C0F7C0F7C1F3C57
:102580003E3FFC1FF00700000000000000000000BC
:10259000F007F80F7C1E3E3C1E3C1F7C1F7C1F7CFE
:1025A0001F7C1F3C3F3EFF1FEF071F001E001E0049
:1025B0003E003C00F838F03FE01F00000000000043
:1025C000000000000000000000000000000000000B
:1025D000E003E003E003E00300000000000000006F
:1025E000000000000000E003E003E003E00300005F
:1025F00000000000000000000000000000000000DB
:1026000000000000E003E003E003E003000000003E
:1026100000000000000000000000E003E003E00311
:10262000E003E001E001E001C003800300000000DE
:10263000000000000000000003000F003F00FC004D
:10264000F003C00F003F00FE003FC00FF003FC008E
:102650003F000F0003000000000000000000000029
:10266000000000000000000000000000000000006A
:1026700000000000FFFFFFFF000000000000FFFF60
:10268000FFFF00000000000000000000000000004C
:10269000000000000000000000000000000000003A
:1026A00000E000F8007E801FE007F8017E001F00B8
:1026B0007E00F801E007801F007E00F800E00000C7
:1026C0000000000000000000F01FFC3F3E381F38F3
:1026D0001F381E001E003C007800F000E001C0031F
:1026E000C003C007C007000000000000C007C0070B
:1026F000C00700000000000000000000F803FE0F0B
:102700001E1F0F3E7F3CFF78EF79C773C7F38FF32F
:102710008FF38FF39FF39FF3FF73FF7BF779003CF9
:102720001C1FFC0FF8030000000000000000000068
:10273000000000000000E003E003F007F007F007EE
:10274000780F780F7C0E3C1E3C1E3E3CFE3FFF3F48
:102750001F780F780FF007F007F00000000000006E
:1027600000000000000000000000F83FFC3F3E3C7D
:102770001E3C1E3C1E3C3E3C7C3CF03FF83F7E3CF9
:102780001F3C1F3C0F3C0F3C1F3CFE3FF83F00002E
:102790000000000000000000000000000000FF0139
:1027A000FF07871F003E003C007C0078007800781F
:1027B00000780078007C007C003E003F831FFF070C
:1027C000FF01000000000000000000000000000009
:1027D0000000F07FFC7F7E781F781F780F780F78DD
:1027E0000F780F780F780F780F780F781F781E7892
:1027F0007E78F87FE07F000000000000000000000D
:10280000000000000000FF3FFF3F003E003E003E92
:10281000003E003E003EFE3FFE3F003E003E003ECA
:10282000003E003E003EFF3FFF3F00000000000072
:1028300000000000000000000000FF1FFF1F001E3E
:10284000001E001E001E001E001EFF1FFF1F001E98
:10285000001E001E001E001E001E001E001E0000A6
:102860000000000000000000000000000000FE0367
:10287000FF0F871F003E007C007C007800F800F806
:102880007FF87FF80F780F7C0F7C0F3E8F1FFF0FB4
:10289000FE03000000000000000000000000000037
:1028A00000001F7C1F7C1F7C1F7C1F7C1F7C1F7CEB
:1028B0001F7CFF7FFF7F1F7C1F7C1F7C1F7C1F7C7A
:1028C0001F7C1F7C1F7C0000000000000000000037
:1028D000000000000000FF3FFF3FE003E003E003D3
:1028E000E003E003E003E003E003E003E003E003D0
:1028F000E003E003E003FF3FFF3F000000000000B3
:1029000000000000000000000000FC1FFC1F7C0015
:102910007C007C007C007C007C007C007C007C00D7
:102920007C007C0078007800F838F03FC03F000061
:1029300000000000000000000000000000001F3C3C
:102940001E3C3C3C783CF03CE03DE03FC03F803FDB
:10295000C03FE03FF03DF03C783C7C3C3E3C1F3CBF
:102960000F3C00000000000000000000000000001C
:102970000000003E003E003E003E003E003E003EA5
:10298000003E003E003E003E003E003E003E003E57
:10299000003EFF3FFF3F000000000000000000007D
:1029A0000000000000001FF81FFC1FFC3FFE3FFE60
:1029B0003FFE7FFF77FF77FFF7F7E7F7E7F3E7F3F0
:1029C000C7F307F007F007F007F000000000000071
:1029D000000000000000000000000F7C0F7C0F7E54
:1029E0000F7F0F7F8F7F8F7FCF7FEF7BEF79FF7917
:1029F000FF78FF787F783F783F781F781F78000056
:102A00000000000000000000000000000000F007CF
:102A1000FC1F3E3E1F7C0F780F780FF80FF80FF861
:102A20000FF80FF80FF80F780F781F7C3E3EFC1F51
:102A3000F00700000000000000000000000000009F
:102A40000000FC3FFF3F1F3E0F3E0F3E0F3E0F3E7C
:102A50001F3E3F3EFC3FF03F003E003E003E003E3A
:102A6000003E003E003E00000000000000000000AC
:102A7000000000000000F007FC1F3E3E1F7C0F78A6
:102A80000F780FF80FF80FF80FF80FF80FF80F780E
:102A90000F781F7C3E3EFC1FF8077C003F000F00B4
:102AA00003000000000000000000F03FFC3F7E3CFF
:102AB0003E3C1E3C1E3C3E3C3C3CFC3CF03FE03F70
:102AC000F03DF83C7C3C3E3C1E3C1F3C0F3C000073
:102AD0000000000000000000000000000000FC07F3
:102AE000FE1F0E3E003C003C003C003EC01FF80FA5
:102AF000FE037F001F000F000F001F203E3CFC3F25
:102B0000F01F0000000000000000000000000000B6
:102B10000000FFFFFFFFE003E003E003E003E0034A
:102B2000E003E003E003E003E003E003E003E0038D
:102B3000E003E003E00300000000000000000000EC
:102B40000000000000000F7C0F7C0F7C0F7C0F7CCE
:102B50000F7C0F7C0F7C0F7C0F7C0F7C0F7C0F7C1D
:102B60001E3C1E3C3E3EFC1FF00700000000000023
:102B70000000000000000000000007F007F007F868
:102B80000F780F7C1E3C1E3C1E3E3C1E3C1F781FD7
:102B9000780FF80FF007F007F007E003E0030000FC
:102BA000000000000000000000000000000003E042
:102BB00003F003F007F0E7F3E7F3E7F3E773F77BDE
:102BC000F77FFF7F7F7F7F7F7E7F7E3F3E3E3E3E63
:102BD0003E3E000000000000000000000000000079
:102BE000000007F80F7C1E3E3E3E3C1FF80FF0072A
:102BF000E007E003E003F007F80F7C0F7C1E3E3C8B
:102C00001F780F780FF000000000000000000000A7
:102C100000000000000007F807780F7C1E3C1E3EF5
:102C20003C1F780FF80FF007E003E003E003E00338
:102C3000E003E003E003E003E00300000000000025
:102C400000000000000000000000FF7FFF7F0F0079
:102C50001F003E007C00F800F000E001E003C00728
:102C6000800F000F001E003E007CFF7FFF7F0000F2
:102C70000000000000000000FF07800780078007B9
:102C8000800780078007800780078007800780070C
:102C900080078007800780078007800780078007FC
:102CA000800780078007FF07FF0700000078007893
:102CB000003C003C001E001E000F000F8007800734
:102CC000C003C003E001E001F000F00078007800EC
:102CD0003C003C001E001E000F000F00070000001B
:102CE000F07FF000F000F000F000F000F000F000E5
:102CF000F000F000F000F000F000F000F000F00054
:102D0000F000F000F000F000F000F000F000F07FC4
:102D1000F07F0000C000C001C001E003E003F00745
:102D2000F0077807780F380F3C1E3C1E1E3C1E3CF7
:102D30000F380F7807780000000000000000000046
:102D40000000000000000000000000000000000083
:102D50000000000000000000000000000000000073
:102D60000000000000000000000000000000000063
:102D70000000FFFFFFFF000000000000F000000067
:102D80000000000000000000000000000000000043
:102D90000000000000000000000000000000000033
:102DA0000000000000000000000000000000000023
:102DB000000000000000000000000000F80FFC3FD1
:102DC0007C3C3E003E003E00FE07FE1F3E3E3E7C39
:102DD0003E783E7C7E7CFF3FCF1F0000000000005D
:102DE00000000000003C003C003C003C003C003C7B
:102DF000F83DFE3F3E3F1F3E0F3C0F3C0F3C0F3C5B
:102E00000F3C0F3C1F3C1E3C3E3FFC3FF03B000094
:102E100000000000000000000000000000000000B2
:102E200000000000FE03FF0F871F003E003E003C35
:102E3000007C007C007C003C003E003E871FFF0FB2
:102E4000FE03000000000000000000001F001F0043
:102E50001F001F001F001F00FF07FF1F3F3E1F3CFA
:102E60001F7C1F7C1F7C1F781F781F7C1F7C3F3CB2
:102E70007F3EFF1FDF0F0000000000000000000089
:102E8000000000000000000000000000F803FC0F3C
:102E90003E1F1E3E1F3C1F7CFF7FFF7F007C007C8F
:102EA000003C003E071FFF0FFE0300000000000073
:102EB00000000000FF01E103C003C007C007C00716
:102EC000FF7FFF7FC007C007C007C007C007C0075C
:102ED000C007C007C007C007C007C007C007000081
:102EE00000000000000000000000000000000000E2
:102EF00000000000EF07FF1F7F3E1F3C1F7C1F7C70
:102F00001F781F781F781F7C1F7C3F3C7F3EFF1F70
:102F1000DF0F1E001E001E007C38F83F003C003C06
:102F2000003C003C003C003CFC3DFE3F9E3F1F3F00
:102F30001F3E1F3C1F3C1F3C1F3C1F3C1F3C1F3CB7
:102F40001F3C1F3C1F3C0000000000000000000070
:102F5000F001F0010000000000000000E07FE07FD1
:102F6000E001E001E001E001E001E001E001E00159
:102F7000E001E001E001E001E001000000000000EC
:102F800000000000F800F800000000000000000051
:102F9000F83FF83FF800F800F800F800F800F800F3
:102FA000F800F800F800F800F800F800F800F80061
:102FB000F800F000F071E07F003C003C003C003C79
:102FC000003C003C1F3C3E3C7C3CF83CF03DE03D7E
:102FD000C03FC03FE03FF03DF83C7C3C3E3C1F3CE6
:102FE0001F3C00000000000000000000F07FF00126
:102FF000F001F001F001F001F001F001F001F00149
:10300000F001F001F001F001F001F001F001F00138
:10301000F001F001F00100000000000000000000DD
:103020000000000000000000000000009EF7FFFF0D
:10303000FFFFFFFFE7FBE7F9C7F1C7F1C7F1C7F1F2
:10304000C7F1C7F1C7F1C7F1C7F1000000000000E8
:103050000000000000000000000000000000000070
:10306000FC3DFE3F9E3F1F3F1F3E1F3C1F3C1F3C41
:103070001F3C1F3C1F3C1F3C1F3C1F3C1F3C0000D3
:103080000000000000000000000000000000000040
:1030900000000000F007FC1F3E3E1F3C1F7C0F7825
:1030A0000F780F780F780F781F7C1F3C3E3EFC1F77
:1030B000F007000000000000000000000000000019
:1030C0000000000000000000F83DFE3F3E3F1F3EB4
:1030D0000F3C0F3C0F3C0F3C0F3C0F3C1F3C1E3E77
:1030E0003E3FFC3FF83F003C003C003C003C003CC5
:1030F000000000000000000000000000EE07FE1FBE
:103100007E3E1E3C1E7C1E781E781E781E781E7821
:103110001E7C3E7C7E3EFE1FDE0F1E001E001E003B
:103120001E001E0000000000000000000000000063
:103130007F1FFF1FE71FC71F871F001F001F001FE4
:10314000001F001F001F001F001F001F001F0000A6
:10315000000000000000000000000000000000006F
:1031600000000000FC07FE1F0E1E003E003E003F58
:10317000E01FFC07FE003E001E001E003E3CFC3F20
:10318000F01F000000000000000000000000000030
:103190000000800780078007FF7FFF7F8007800790
:1031A00080078007800780078007800780078007E7
:1031B000C007FF03FF010000000000000000000046
:1031C0000000000000000000000000001E3C1E3C4B
:1031D0001E3C1E3C1E3C1E3C1E3C1E3C1E3C1E3C1F
:1031E0003E3C7E3CFE3EFE1FDE0F00000000000065
:1031F00000000000000000000000000000000000CF
:1032000007F00F780F781E3C1E3C1E3E3C1E3C1EF5
:10321000780F780FF00FF007F007E003E0030000ED
:10322000000000000000000000000000000000009E
:103230000000000003F0E3F1E3F3E7F3F7F3F7F343
:10324000F77F777F7F7F7F7F7F7F3E3E3E3E3E3EA4
:103250003E3E0000000000000000000000000000F2
:1032600000000000000000000F7C1E3E3C3E3C1FA2
:10327000F80FF007F007E003F007F807F80F7C1EDF
:103280003E3E1F3C1F7800000000000000000000D0
:1032900000000000000000000000000007F80F78A8
:1032A0000F7C1E3C1E3C3C1E3C1E3C1F780FF80F42
:1032B000F007F007E003E003C003C003C00380078A
:1032C000800F007F000000000000000000000000F0
:1032D000FF3FFF3F1F003E007C00F800F001E003CD
:1032E000C007800F001F001E003CFF7FFF7F000013
:1032F0000000000000000000FE01E003C003C00366
:10330000C003C003E001E001E001C001C003803F51
:10331000803FC003C001E001E001E001C003C00341
:10332000C003C003E003FE017E000000C001C00135
:10333000C001C001C001C001C001C001C001C00185
:10334000C001C001C001C001C001C001C001C00175
:10335000C001C001C001C001C001C001C001000026
:10336000C03FE003E001E001E001E001C001C00373
:10337000C003C001E001FE00FE00E001C001C00387
:10338000C003C001E001E001E001E001E003C03F53
:10339000003F0000000000000000000000000000EE
:1033A00000000000000000000000073FC77FE77337
:1033B000FFF17EF0000000000000000000000000AF
:1033C00000000000000000000102020304050607DF
:1033D00008090A0B0C0D0E0F101042004B004E0096
:1033E0005000510052000000083400080000002086
:1033F00018000000280100082034000818000020F0
:10340000C006000044010008010000001000000098
:10341000101A00007C2000080024F40000000000C6
:04000005080000ED02
:00000001FF
